:020000040800F2
:1040000078050020454100084D4100084F41000857
:1040100051410008534100085541000800000000CC
:1040200000000000000000000000000057410008F0
:1040300059410008000000005B4100085D41000894
:104040005F4100085F4100085F4100085F410008D0
:104050005F4100085F4100085F4100085F410008C0
:104060005F4100085F4100085F4100085F410008B0
:104070005F4100085F4100085F4100085F410008A0
:104080005F4100085F4100085F4100085F41000890
:104090005F4100085F4100085F4100085F41000880
:1040A0005F4100085F4100085F4100085F41000870
:1040B000414900085F4100085F4100085F41000876
:1040C0005F4100085F4100085F4100085F41000850
:1040D0005F410008AD4C0008F94C00085F41000842
:1040E0005F4100085F4100085F4100085F41000830
:1040F0005F4100085F4100085F4100085F41000820
:104100005F4100085F4100085F4100085F4100080F
:104110005F4100085F4100085F4100085F410008FF
:104120005F4100085F4100085F4100085F410008EF
:10413000DFF80CD000F086F8004800470D56000864
:10414000780500200648804706480047FEE7FEE75E
:10415000FEE7FEE7FEE7FEE7FEE7FEE7FEE7FEE737
:10416000694800083141000840EA01039B0703D079
:1041700009E008C9121F08C0042AFAD203E011F8A6
:10418000013B00F8013B521EF9D27047D2B201E068
:1041900000F8012B491EFBD270470022F6E710B54C
:1041A00013460A4604461946FFF7F0FF204610BDA5
:1041B00030B505462A460B4612F8010B13F8014BA1
:1041C00008B1A042F8D01CB1002802D06D1CF1E764
:1041D000284630BD421C10F8011B0029FBD1801A73
:1041E00070472DE9F05F0546002092469B468846C1
:1041F0000646814640241BE0284641464746224663
:1042000000F041F853465A46C01A914110D3114666
:104210001846224600F028F82D1A67EB01084F4691
:1042200022460120002100F01FF817EB00094E4143
:10423000201EA4F10104DFDC484631462A464346ED
:10424000BDE8F09F064C074D06E0E06840F0010332
:1042500094E8070098471034AC42F6D3FFF76CFFA0
:10426000D8640008F8640008202A04DB203A00FA29
:1042700002F1002070479140C2F1200320FA03F3BD
:10428000194390407047202A04DB203A21FA02F0BB
:104290000021704721FA02F3D040C2F12002914080
:1042A000084319467047000030B5044604254FF412
:1042B000302000F06FF80546042D17D10C48006936
:1042C00040F002000A49086108464461006940F074
:1042D000400008614FF4302000F05CF805460448C7
:1042E000006941F6FD71084001490861284630BD6A
:1042F0000020024004200B49C96801F0010109B106
:1043000001200EE00749C96801F0040109B102204B
:1043100007E00449C96801F0100109B1032000E079
:1043200004207047002002400348006940F08000EC
:1043300001490861704700000020024070B5044642
:104340000D460426F00200F025F80646042E11D191
:104350000948006940F00100074908612580F00222
:1043600000F018F806460448006941F6FE7108405E
:1043700001490861304670BD0020024002480349EF
:1043800048600348486070472301674500200240A9
:10439000AB89EFCD00B502460423FFF7ABFF034620
:1043A00003E0FFF7A7FF0346521E012B01D1002AAD
:1043B000F7D102B90523184600BD2DE9F0410246A8
:1043C00000250026002000230024002791F803C0C8
:1043D0000CF00F0591F803C00CF0100CBCF1000FAD
:1043E00003D091F802C04CEA050591F800C0BCF179
:1043F000000F31D0146800202BE04FF0010C0CFAB4
:1044000000F3B1F800C00CEA03069E4220D18300FD
:104410004FF00F0C0CFA03F7BC4305FA03FC4CEA0F
:10442000040491F803C0BCF1280F06D14FF0010C31
:104430000CFA00FCC2F814C00AE091F803C0BCF109
:10444000480F05D14FF0010C0CFA00FCC2F810C067
:10445000401C0828D1D31460B1F800C0BCF1FF0F94
:1044600034DD546800202EE000F1080C4FF0010804
:1044700008FA0CF3B1F800C00CEA03069E4221D101
:1044800083004FF00F0C0CFA03F7BC4305FA03FC52
:104490004CEA040491F803C0BCF1280F05D100F1E7
:1044A000080C08FA0CF8C2F8148091F803C0BCF1AB
:1044B000480F07D100F1080C4FF0010808FA0CF87A
:1044C000C2F81080401C0828CED35460BDE8F081AB
:1044D00002460020D3680B400BB1012000E0002011
:1044E0007047000070B5002100230F22C47804B388
:1044F000154C246804F4E064C4F5E064210AC1F1B9
:104500000403CA40447804FA03F184781440214338
:1045100009010E4C0678A155047804F01F0501240A
:10452000AC4005786D11AD0005F1E025C5F80041FE
:1045300009E0047804F01F050124AC40044D06781E
:10454000761145F8264070BD0CED00E000E400E077
:1045500080E100E002490143024A11607047000017
:104560000000FA050CED00E0024A0A400243024B4B
:104570001A60704780FFFF1F08ED00E008B54FF498
:10458000E060FFF7E7FF25208DF8000001208DF89F
:1045900001008DF802008DF803006846FFF7A2FFC6
:1045A00008BD08B54FF4C060FFF7D4FF26208DF892
:1045B000000001208DF801008DF802008DF8030045
:1045C0006846FFF78FFF08BD29B1064AD26902434A
:1045D000044BDA6104E0034AD2698243014BDA6199
:1045E000704700000010024029B1064A12690243D8
:1045F000044B1A6104E0034A12698243014B1A61B9
:10460000704700000010024029B1064A9269024337
:10461000044B9A6104E0034A92698243014B9A6118
:10462000704700000010024029B1064AD2680243D8
:10463000044BDA6004E0034AD2688243014BDA603B
:10464000704700000010024030B500210022002415
:1046500000232D4D6D6805F00C0121B1042905D012
:10466000082923D105E0294D056022E0274D05608A
:104670001FE0254D6D6805F47012234D6D6805F43B
:104680008034022505EB92421CB9214D554305604B
:104690000BE01D4D6D6805F400351DB11C4D5543F3
:1046A000056002E0194D5543056002E0174D0560B5
:1046B00000BF00BF144D6D6805F0F0010909154DEC
:1046C0006B5C0568DD4045600F4D6D6805F4E06189
:1046D000090A104D6B5C4568DD4085600A4D6D68C8
:1046E00005F46051C90A0B4D6B5C4568DD40C5603F
:1046F000054D6D6805F44041890B074D6B5CC5683D
:10470000B5FBF3F5056130BD0010024000127A00E0
:1047100000093D00340000204400002070B505462B
:104720000E46002400200A4908600DE00948008870
:10473000295D084800F095FC00BF4021054800F0C5
:10474000C3FB0128F9D1641CB442EFD370BD000053
:10475000180000200038014010B500F001F810BD2D
:104760000CB50020019000903348006840F4803080
:104770003149086000BF3048006800F40030009004
:104780000198401C0190009818B90198B0F5A06FED
:10479000F1D12948006800F4003010B101200090E8
:1047A00001E0002000900098012843D123480068D0
:1047B00040F01000214908600846006820F003001E
:1047C00008600846006840F0020008601A48406827
:1047D000194948600846406848600846406840F407
:1047E000806048600846406820F47C1048600846B5
:1047F000406840F4E81048600846006840F0807067
:10480000086000BF0C48006800F000700028F9D074
:104810000948406820F0030007494860084640689E
:1048200040F00200486000BF0348406800F00C0000
:104830000828F9D10CBD0000001002400020024001
:10484000042808D14FF0E021096941F004014FF03C
:10485000E022116107E04FF0E021096921F0040135
:104860004FF0E0221161704710B51248006840F027
:10487000010010490860084640680F4908400D498A
:104880004860084600680D4908400A490860084623
:10489000006820F4802008600846406820F4FE008C
:1048A00048604FF41F008860FFF756FF0448054931
:1048B000086010BD001002400000FFF8FFFFF6FE88
:1048C0000040000808ED00E01FB501210846FFF791
:1048D0007BFE4FF0804000F089F840F2CF70ADF8D9
:1048E000040048F69F40ADF800000020ADF8060037
:1048F000ADF8020069464FF0804000F085F90121D3
:10490000880700F061F801221146900700F073F962
:104910004FF4A060FFF71EFE1C208DF80C00012054
:104920008DF80D0002208DF80E0001208DF80F008B
:1049300003A8FFF7D7FD0121880700F04BF81FBD42
:1049400010B50121880700F045F9012833D1012174
:10495000800700F03CF8184801680068401C164ABF
:1049600010600A2913DB0020114608604FF48071A3
:104970001248FFF7ADFD28B14FF480700F49143194
:10498000086004E04FF480700C49103108600C4856
:1049900001680068401C0A4A1060032902DB0020FD
:1049A0001146086007480068002804DD05480068D3
:1049B000401E0449086010BD0C00002000080140A2
:1049C0001000002014000020CA4302827047CA432E
:1049D0000282704721B1028842F00102028004E0A5
:1049E00002884FF6FE731A400280704710B50446E5
:1049F0006848844208D10121C014FFF715FE002148
:104A0000E014FFF711FEC4E0B4F1804F08D101219A
:104A10000846FFF7E9FD00210120FFF7E5FDB8E0BA
:104A20005D48844208D101210220FFF7DDFD00210D
:104A30000220FFF7D9FDACE05848844208D101219B
:104A40000420FFF7D1FD00210420FFF7CDFDA0E0F9
:104A50005348844208D101210820FFF7C5FD0021F9
:104A60000820FFF7C1FD94E04E48844208D101219F
:104A70001020FFF7B9FD00211020FFF7B5FD88E0F9
:104A80004948844208D101212020FFF7ADFD0021D3
:104A90002020FFF7A9FD7CE04448844208D1012191
:104AA0004014FFF7C1FD00216014FFF7BDFD70E069
:104AB0003F48844209D10121C804FFF7B5FD002118
:104AC0004FF40020FFF7B0FD63E03A48844209D17B
:104AD00001210805FFF7A8FD00214FF48010FFF722
:104AE000A3FD56E03448844209D101214805FFF76F
:104AF0009BFD00214FF40010FFF796FD49E02F4881
:104B0000844208D101214020FFF76EFD00214020A2
:104B1000FFF76AFD3DE02A48844208D10121802048
:104B2000FFF762FD00218020FFF75EFD31E02548A0
:104B3000844208D101218015FFF756FD0021A01500
:104B4000FFF752FD25E02048844209D101210804E5
:104B5000FFF76AFD00214FF48030FFF765FD18E094
:104B60001A48844209D101214804FFF75DFD002164
:104B70004FF40030FFF758FD0BE01548844208D190
:104B800001218804FFF750FD00214FF48020FFF73A
:104B90004BFD10BD002C0140000400400008004007
:104BA000000C0040001000400014004000340140A0
:104BB000004C0140005001400054014000180040EA
:104BC000001C004000200040004001400044014023
:104BD0000048014030B50246002000230024158A19
:104BE00005EA0103958905EA010413B10CB101201E
:104BF00000E0002030BD1AB183890B43838102E0BD
:104C000083898B4383817047002202881D4B984221
:104C10000ED01D4B98420BD0B0F1804F08D01B4BEB
:104C2000984205D01A4B984202D01A4B984204D1B0
:104C30004FF68F731A404B881A43174B984207D090
:104C4000164B984204D04FF6FF431A40CB881A43C4
:104C500002808B8883850B8803850A4B98420BD092
:104C6000094B984208D00E4B984205D00D4B984204
:104C700002D00D4B984201D10B7A03860123838227
:104C800070470000002C0140003401400004004047
:104C900000080040000C00400010004000140040DC
:104CA00000400140004401400048014010B540F27E
:104CB00025510E4800F015F9B8B140F225510B48C6
:104CC00000F05BF8094800F0C7F9C4B20848006872
:104CD000962802D30020064908600548016800684C
:104CE000401C034A10600348445410BD0038014082
:104CF000180000204C00002010B540F22551164845
:104D000000F0EFF838B340F22551134800F035F8C1
:104D1000114800F0A1F9C4B210480068962802D3E7
:104D200000200E4908600D4801680068401C0B4ACD
:104D300010600B4844540A2C0DD100200849126819
:104D4000885408490860054801680548FFF7E6FCF3
:104D500000200249086010BD004400401C000020F3
:104D6000E20000201800002001F40072B2F5007F7C
:104D700000D100BFCA430280704710B50022002353
:104D800040F66A14A14200D100BF0A1201249440E7
:104D9000A3B2DC43048010BD21B1828942F40052E9
:104DA000828104E082894DF6FF731A408281704748
:104DB00000B585B001210420FFF726FC01218803FE
:104DC000FFF722FC01214804FFF7FEFB4FF40070BF
:104DD000ADF8000018208DF8030003208DF80200C4
:104DE00069463648FFF7E9FA4FF48060ADF80000F5
:104DF00004208DF8030003208DF8020069462F4837
:104E0000FFF7DBFA0420ADF8000018208DF803004E
:104E100003208DF8020069462848FFF7CEFA0820E3
:104E2000ADF8000004208DF8030003208DF8020087
:104E300069462248FFF7C1FA4FF4E13001900020A3
:104E4000ADF80800ADF80C00ADF80A00ADF81000A0
:104E50000C20ADF80E0001A9194800F091F801A945
:104E6000184800F08DF840211548FFF77DFF2021FC
:104E70001348FFF779FF40211248FFF775FF202103
:104E80001048FFF771FF012240F225510C4800F055
:104E900052F8012240F225510A4800F04CF8FFF781
:104EA0006DFBFFF77EFB01210548FFF775FF012130
:104EB0000448FFF771FF05B000BD00000008014085
:104EC000003801400044004002460020B1F5007F58
:104ED00000D100BF13880B400BB1012000E000207F
:104EE000704770B50246002400230025002040F6DC
:104EF0006A16B14200D100BFC1F3421501F01F0391
:104F0000012606FA03F3012D02D19689334006E00B
:104F1000022D02D1168A334001E0968A33400C12EA
:104F2000012606FA04F41688344013B10CB10120AE
:104F300000E0002070BDF0B50346002400260025E7
:104F4000002040F66A17B94200D100BF1846C1F3ED
:104F5000421401F01F06012707FA06F5012C01D1C2
:104F60000C3004E0022C01D1103000E014301AB1F2
:104F700007682F43076002E00768AF430760F0BD92
:104F80002DE9F04786B005460E460024A24600BF34
:104F9000A1460027B08900B100BF2F462C8A4CF6ED
:104FA000FF700440F08804432C82AC894EF6F31065
:104FB0000440B08831890843718908430443AC81B7
:104FC000AC8A4FF6FF400440B0890443AC8201A88C
:104FD000FFF73AFB1F48874202D1DDF810A001E03D
:104FE000DDF80CA0A88900F4004040B10AEBCA002B
:104FF00000EB0A1031684900B0FBF1F807E00AEB5A
:10500000CA0000EB0A1031688900B0FBF1F8642097
:10501000B8FBF0F004012009642101FB1089A88984
:1050200000F4004040B1322000EBC900B0FBF1F0C9
:1050300000F00700044308E0322000EB091064216F
:10504000B0FBF1F000F00F0004432C8106B0BDE886
:10505000F08700000038014001468888C0F308004E
:105060007047C1F308028280704700000FB4054BFF
:1050700010B503A9044A029800F018F810BC5DF8B6
:1050800014FB0000BD5500084800002002E008C8DD
:10509000121F08C1002AFAD170477047002001E0B2
:1050A00001C1121F002AFBD1704700002DE9FF4FFC
:1050B0008DB00F460546002606E025280BD0DDE919
:1050C0000F1290476D1C761C28780028F5D111B07E
:1050D0003046BDE8F08F0024A246A1460122EC49EB
:1050E00000E0044315F8013F203B02FA03F00842B8
:1050F000F7D128782A2810D06FF02F022878A0F155
:105100003001092914D80AEB8A0102EB410144F06D
:10511000020400EB010A6D1CF0E701CF5FEA000A10
:1051200003D544F40054CAF1000A44F002046D1C93
:1051300028782E2817D115F8010F44F004042A28E6
:105140000ED06FF02F022878A0F1300109290AD87B
:1051500009EB890102EB410100EB01096D1CF2E74B
:1051600057F8049B6D1C28786C280FD006DC4C285F
:1051700017D068280DD06A2814D104E0742810D004
:105180007A280FD10DE044F400140AE044F48014AE
:1051900001E044F440146978814202D104F580149E
:1051A0006D1C6D1C2A786E2A1FD00CDC632A31D04E
:1051B00004DC002A8BD0582A11D1A3E0642A68D0DD
:1051C000692A0CD165E0732A2ED004DC6F2A73D0D3
:1051D000702A04D19BE0752A6FD0782A6ED01046D1
:1051E000DDE90F129047761C50E1C4F3025002280B
:1051F00006D0032809D0042801CF09D0066045E174
:1052000001CFF117C0E9006140E101CF06803DE127
:1052100006703BE117F8040B8DF8000000208DF8B4
:105220000100EB46012003E057F804BB4FF0FF30CC
:1052300061074FF0000102D40DE008F1010188463A
:1052400049450FDA8045F8DB1BF808100029F4D136
:1052500008E008F1010188468142FADB1BF80810DA
:105260000029F6D1DDE90F23AAEB0800814621468B
:1052700000F036F9304400EB080604E0DDE90F12D7
:105280001BF8010B9047B8F10108F7D221464846B8
:10529000F7E00A21C4F302534FF0000B0891022BF0
:1052A00004D001CFC117032B09D00AE0FF1D27F05E
:1052B0000707F7E8020108E032E01FE020E000B253
:1052C000C117042B01D140B2C117031E71F10003B5
:1052D00007DA4FF0000CD0EB0C006CEB01012D2332
:1052E00002E0230504D52B238DF82430012303E0AD
:1052F000E30701D02023F7E7984658E00A2110E0A1
:1053000010210EE010204FF0000B08900CE010214F
:105310004FF0000B44F004044FF00809089103E03B
:1053200008214FF0000B0891C4F30253022B04D064
:1053300001CF0021032B06D006E0FF1D27F0070751
:10534000F7E8020103E080B2042B00D1C0B24FF0B5
:10535000000823072BD5702A07D0DDF820C08CF079
:10536000100C5CEA0B0C05D00EE040238DF82430C5
:10537000012308E050EA010306D030238DF82430E1
:105380008DF8252002239846DDF820C08CF0080C0B
:105390005CEA0B0C0BD150EA010301D1630706D57F
:1053A00030238DF824304FF00108A9F10109582A63
:1053B00004D038A20B9208AA0A920BE03AA2F9E7AD
:1053C0005B46089AFEF70DFF0B9B9B5C0A9A521EE8
:1053D0000A92137050EA0102F2D10A98ADEB000074
:1053E00000F1200B600702D524F4803401E04FF077
:1053F0000109D94502DDA9EB0B0000E0002000EB1C
:105400000B0141440890AAEB010AE00306D4DDE950
:105410000F232146504600F063F806444FF0000980
:1054200008E009A911F80900DDE90F12904709F118
:105430000109761CC145F4DBE0030CD5DDE90F233F
:105440002146504600F04CF8064404E0DDE90F1216
:1054500030209047761C0899481E08900029F5DCFA
:1054600008E00A980A990078491C0A91DDE90F12B0
:105470009047761CBBF10001ABF1010BF1DC21463A
:105480005046DDE90F2300F019F806446D1C1BE6B9
:10549000092801003031323334353637383961620A
:1054A00063646566000000003031323334353637CE
:1054B0003839414243444546000000002DE9F0419F
:1054C000044600251E461746880404D405E03946E4
:1054D0002020B0476D1C641EF9D52846BDE8F08138
:1054E0002DE9F041044600251E469046C80301D52B
:1054F000302700E02027880404D505E041463846DF
:10550000B0476D1C641EF9D52846BDE8F081000047
:1055100070B505460E460024094800880CE0295D58
:105520000748FFF79EFD00BF40210548FFF7CCFC70
:105530000128F9D1601C84B2B442F0DB70BD0000D8
:105540000044004010B504466FF00400FFF778F9FE
:10555000E11704EB5171C1F3C701074A11701046FE
:10556000007800EB4001C1EBC0104FF6FF7101EA7B
:10557000C0000249088010BD080000200A00002079
:1055800001460D4A12884A434FF0E0235A61002237
:105590009A6101221A6100BF4FF0E022106900F009
:1055A00001021AB100F48032002AF5D000224FF037
:1055B000E0231A615A6170470A00002070B5044662
:1055C0000D4607480088E1B20548FFF74AFD00BFD5
:1055D00040210348FFF778FC0128F9D1204670BD2F
:1055E0000044004010B504A10748FEF7E1FD044661
:1055F0000CB100F08DFE10BD6669726D7761726549
:1056000020757064617465004C000020C0B033A147
:1056100003C9CDE93E0133A500244FF4804148037E
:10562000FEF7A2FF62B6FFF7C3FBFFF74DF94FF499
:105630008070ADF8080010208DF80B0003208DF865
:105640000A0002A92A48FEF7B8FE4FF480702849E4
:10565000103108604820FFF775FF03A800F06EF9CD
:1056600003A800F0F9FD3EA8FEF7B4FD0646324659
:105670003EA903A800F002FE3AA903A800F0EAF848
:1056800003A800F051F9002405E03AA8015D19A033
:10569000FFF7ECFC641C102CF7DB08202B4619AA42
:1056A000802100901AA800F029F81998C1B21AA810
:1056B000FFF72EFF11E04FF480700D4910310860A4
:1056C0006420FFF75DFF4FF48070094914310860D2
:1056D0006420FFF755FFFFF785FFECE761646D6914
:1056E0006E0000004D54497A4E44553D00000000C4
:1056F0000008014025303278000000002DE9F04715
:10570000074689469046DDF820C00020054604463D
:10571000014645E0002601E0491C761C614502D2A5
:10572000585C2028F8D0614500D13BE0ACEB01008B
:10573000022807D3585C0D2804D1481C185C0A289D
:1057400000D12CE0585C0A2800D128E01EB16FF08F
:105750002B00BDE8F087585C3D2806D1681C054643
:10576000022802D96FF02B00F3E7585C7F2806DC93
:10577000585CDFF8DCA01AF800007F2802D16FF037
:105780002B00E6E7585CDFF8C8A01AF800004028B4
:1057900003DA15B16FF02B00DBE7641C00BF491C76
:1057A0006145B7D300BF1CB90020C8F80000D0E79E
:1057B00004EB44004FF0070A0AEB4000C408641BE6
:1057C0000FB1A14504D2C8F800406FF02900C0E72E
:1057D00003250020064604463A4631E018780D2895
:1057E00005D018780A2802D01878202800D125E0A2
:1057F0001878DFF85CA01AF80000402801D10120D9
:1058000000E000202D1A1878DFF844A01AF80000F4
:1058100066F39F100646601C044604280DD1002440
:1058200015B1300C02F8010B012D02D9300A02F833
:10583000010B022D01D902F8016B00BF491E5B1C50
:105840000029CBD1D01BC8F80000002081E7000060
:10585000C86300082DE9FC4704460D462068400F48
:10586000616840EAC1062068C700F8B28DF8000000
:10587000380A8DF80100380C8DF80200380E8DF8CA
:105880000300F0B28DF80400300A8DF80500300CEA
:105890008DF80600300E8DF80700207800F03F08E4
:1058A000B8F1380F02D2C8F1380001E0C8F1780031
:1058B00081464A461B49204600F0E0FC0822694622
:1058C000204600F0DBFC207A28702089000A6870EE
:1058D000A068000CA870A068000EE870207B2871FA
:1058E000A089000A6871E068000CA871E068000EE9
:1058F000E871207C2872208A000A68722069000CF6
:10590000A8722069000EE872207D2873A08A000A20
:1059100068736069000CA8736069000EE873BDE8E5
:10592000FC8700004864000810B5044604B910BDA7
:105930005821204600F0E0FC00BFF8E710B504460F
:1059400058212046FEF729FC10BD0000F0B590B0AC
:1059500005460C462678677846EA0726A77846EA81
:105960000746E77846EA076600962679677946EAA9
:105970000726A77946EA0746E77946EA07660196C9
:10598000267A677A46EA0726A77A46EA0746E77A3A
:1059900046EA07660296267B677B46EA0726A77BD0
:1059A00046EA0746E77B46EA07660396267C677C5D
:1059B00046EA0726A77C46EA0746E77C46EA0766EA
:1059C0000496267D677D46EA0726A77D46EA0746B8
:1059D000E77D46EA07660596267E677E46EA072645
:1059E000A77E46EA0746E77E46EA07660696267FD2
:1059F000677F46EA0726A77F46EA0746E77F46EA2B
:105A00000766079694F8206094F8217046EA072606
:105A100094F8227046EA074694F8237046EA07662F
:105A2000089694F8246094F8257046EA072694F8BE
:105A3000267046EA074694F8277046EA07660996F4
:105A400094F8286094F8297046EA072694F82A709A
:105A500046EA074694F82B7046EA07660A9694F8D9
:105A60002C6094F82D7046EA072694F82E7046EACA
:105A7000074694F82F7046EA07660B9694F8306054
:105A800094F8317046EA072694F8327046EA0746E1
:105A900094F8337046EA07660C9694F8346094F8EC
:105AA000357046EA072694F8367046EA074694F8B9
:105AB000377046EA07660D9694F8386094F83970A6
:105AC00046EA072694F83A7046EA074694F83B708F
:105AD00046EA07660E9694F83C6094F83D7046EAF4
:105AE000072694F83E7046EA074694F83F7046EA67
:105AF00007660F96A868E9682A696B6982EA030657
:105B00000E405E40009F3E44FE4F3E443044C6017E
:105B100046EA5066701881EA020606405640019F28
:105B20003E44F94F3E4433441E0346EA13563318AD
:105B300080EA01061E404E40029F3E44F34F3E4421
:105B40003244560446EAD236F21883EA000616407A
:105B50004640039F3E44EE4F3E4431448E0546EAA4
:105B60009126B11882EA03060E405E40049F3E442F
:105B7000E84F3E443044C60146EA5066701881EA58
:105B8000020606405640059F3E44E34F3E443344E0
:105B90001E0346EA1356331880EA01061E404E40A3
:105BA000069F3E44DD4F3E443244560446EAD23618
:105BB000F21883EA000616404640079F3E44D84F3D
:105BC0003E4431448E0546EA9126B11882EA030626
:105BD0000E405E40089F3E44D24F3E443044C601D2
:105BE00046EA5066701881EA020606405640099F50
:105BF0003E44CD4F3E4433441E0346EA1356331809
:105C000080EA01061E404E400A9F3E44A6F5244607
:105C10004F3E3244560446EAD236F21883EA000672
:105C2000164046400B9F3E44C04F3E4431448E05D3
:105C300046EA9126B11882EA03060E405E400C9FA8
:105C40003E44BB4F3E443044C60146EA506670189D
:105C500081EA0206064056400D9F3E44B54F3E4441
:105C600033441E0346EA1356331880EA01061E40E9
:105C70004E400E9F3E44B04F3E443244560446EAE6
:105C8000D236F21883EA0006164046400F9F3E4483
:105C9000AA4F3E4431448E0546EA9126B11881EA66
:105CA00002061E405640019F3E44A54F3E443044EC
:105CB000460146EAD066701880EA010616404E405A
:105CC000069F3E449F4F3E4433445E0246EAD3560D
:105CD000331883EA00060E4046400B9F3E449A4F1D
:105CE0003E443244960346EA9246F21882EA03069C
:105CF00006405E40009F3E44944F3E4431440E05B2
:105D000046EA1136B11881EA02061E405640059F48
:105D10003E448F4F3E443044460146EAD0667018F8
:105D200080EA010616404E400A9F3E44894F3E4499
:105D300033445E0246EAD356331883EA00060E4027
:105D400046400F9F3E44844F3E443244960346EA09
:105D50009246F21882EA030606405E40049F3E44E3
:105D60007E4F3E4431440E0546EA1136B11881EAB1
:105D700002061E405640099F3E44794F3E4430443F
:105D8000460146EAD066701880EA010616404E4089
:105D90000E9F3E44734F3E4433445E0246EAD35660
:105DA000331883EA00060E404640039F3E446E4F80
:105DB0003E443244960346EA9246F21882EA0306CB
:105DC00006405E40089F3E44684F3E4431440E0505
:105DD00046EA1136B11881EA02061E4056400D9F70
:105DE0003E44634F3E443044460146EAD066701854
:105DF00080EA010616404E40029F3E445D4F3E44FD
:105E000033445E0246EAD356331883EA00060E4056
:105E10004640079F3E44584F3E443244960346EA6C
:105E20009246F21882EA030606405E400C9F3E440A
:105E3000524F3E4431440E0546EA1136B11881EA0C
:105E400002065E40059F3E444D4F3E4430440601ED
:105E500046EA1076701880EA01065640089F3E44D4
:105E6000484F3E443344DE0246EA5356331883EA31
:105E700000064E400B9F3E44434F3E4432441604BE
:105E800046EA1246F21882EA030646400E9F3E4456
:105E90003E4F3E443144CE0546EA5126B11881EAD0
:105EA00002065E40019F3E44394F3E4430440601A5
:105EB00046EA1076701880EA01065640049F3E4478
:105EC000344F3E443344DE0246EA5356331883EAE5
:105ED00000064E40079F3E442F4F3E443244160476
:105EE00046EA1246F21882EA030646400A9F3E44FA
:105EF0002A4F3E443144CE0546EA5126B11881EA84
:105F000002064DE078A46AD756B7C7E8DB702024B4
:105F1000EECEBDC1AF0F7CF52AC68747134630A829
:105F2000019546FDD8988069AFF7448BBED75C8950
:105F30002211906B937198FD8E4379A62108B44984
:105F400062251EF640B340C0515A5E26AAC7B6E984
:105F50005D102FD65314440281E6A1D8C8FBD3E7C5
:105F6000E6CDE121D60737C3870DD5F4ED145A45A8
:105F700005E9E3A9F8A3EFFCD9026F678A4C2A8DE3
:105F80004239FAFF81F6718722619D6D0C38E5FD7B
:105F900044EABEA4A9CFDE4B604BBBF670BCBFBECB
:105FA0005E400D9F3E44944F3E443044060146EA15
:105FB0001076701880EA01065640009F3E448F4FCD
:105FC0003E443344DE0246EA5356331883EA000661
:105FD0004E40039F3E448A4F3E443244160446EAF4
:105FE0001246F21882EA03064640069F3E44854F59
:105FF0003E443144CE0546EA5126B11881EA0206F4
:106000005E40099F3E44804F3E443044060146EACC
:106010001076701880EA010656400C9F3E447B4F74
:106020003E443344DE0246EA5356331883EA000600
:106030004E400F9F3E44764F3E443244160446EA9B
:106040001246F21882EA03064640029F3E44714F10
:106050003E443144CE0546EA5126B11861EA0306B2
:106060005640009F3E446C4F3E443044860146EA11
:106070009066701860EA02064E40079F3E44674FE4
:106080003E4433449E0246EA9356331863EA0106BF
:1060900046400E9F3E44624F3E443244D60346EA99
:1060A0005246F21862EA00065E40059F3E445D4F8C
:1060B0003E4431444E0546EAD126B11861EA030652
:1060C00056400C9F3E44584F3E443044860146EAB9
:1060D0009066701860EA02064E40039F3E44534F9C
:1060E0003E4433449E0246EA9356331863EA01065F
:1060F00046400A9F3E444E4F3E443244D60346EA51
:106100005246F21862EA00065E40019F3E44494F43
:106110003E4431444E0546EAD126B11861EA0306F1
:106120005640089F3E44444F3E443044860146EA70
:106130009066701860EA02064E400F9F3E443F4F43
:106140003E4433449E0246EA9356331863EA0106FE
:106150004640069F3E443A4F3E443244D60346EA08
:106160005246F21862EA00065E400D9F3E44354FEB
:106170003E4431444E0546EAD126B11861EA030691
:106180005640049F3E44304F3E443044860146EA28
:106190009066701860EA02064E400B9F3E442B4FFB
:1061A0003E4433449E0246EA9356331863EA01069E
:1061B0004640029F3E44264F3E443244D60346EAC0
:1061C0005246F21862EA00065E40099F3E44214FA3
:1061D0003E4431444E0546EAD126B118AE68064425
:1061E000AE60EE687718EF602E69B7182F616E69A0
:1061F000F7186F6110B0F0BDC67E9B28FA27A1EAA0
:106200008530EFD4051D880439D0D4D9E599DBE673
:10621000F87CA21F6556ACC4442229F497FF2A4398
:10622000A72394AB39A093FCC3595B6592CC0C8F28
:106230007DF4EFFFD15D84854F7EA86FE0E62CFEF4
:10624000144301A3A111084E827E53F735F23ABDE3
:10625000BBD2D72A91D386EB00210160416005496A
:106260008160054AC260CA430261034AD243426167
:10627000704700000123456789ABCDEF2DE9F04160
:106280000446884615460DB9BDE8F081207800F037
:106290003F07C7F14006206828442060206820603E
:1062A0002068A84202D26068401C606087B1B54295
:1062B0000ED304F11801C81932464146FDF754FFC8
:1062C00004F118012046FFF741FBB044AD1B002745
:1062D00006E041462046FFF739FB08F14008403D03
:1062E000402DF6D235B104F11801C8192A464146AD
:1062F000FDF73AFF00BFC7E710B5024602E00023F2
:1063000002F8013B0B1EA1F10101F8D110BD000004
:1063100008B54FF680710B4800F018F872B64FF0D0
:106320000060406800900849009808604FF00061E4
:10633000086880F3088800BF03480068804762B699
:1063400008BD000000280308040000202DE9F041EA
:1063500004468846B4F1006F02D20120BDE8F08106
:10636000A4F10066F50A4FF0006000EBC527FEF7C8
:1063700005F83846FDF798FF41462046FDF7DEFF59
:10638000FDF7D2FF0020E9E7414243444546474834
:10639000494A4B4C4D4E4F505152535455565758F5
:1063A000595A6162636465666768696A6B6C6D6E91
:1063B0006F707172737475767778797A30313233A1
:1063C0003435363738392B2F7F7F7F7F7F7F7F7F34
:1063D0007F7F7F7F7F7F7F7F7F7F7F7F7F7F7F7FCD
:1063E0007F7F7F7F7F7F7F7F7F7F7F7F7F7F7F7FBD
:1063F0007F7F7F3E7F7F7F3F3435363738393A3B6A
:106400003C3D7F7F7F407F7F7F00010203040506C4
:106410000708090A0B0C0D0E0F1011121314151694
:106420001718197F7F7F7F7F7F1A1B1C1D1E1F205F
:106430002122232425262728292A2B2C2D2E2F30D4
:106440003132337F7F7F7F7F8000000000000000BB
:10645000000000000000000000000000000000003C
:10646000000000000000000000000000000000002C
:10647000000000000000000000000000000000001C
:10648000000000000000000041542B4D49504341E2
:106490004C4C3D312C22636D6E6574220D0A000058
:1064A00041542B47545345543D22495052464D5474
:1064B000222C320D0A00000041542B43475245471D
:1064C0003F0D0A0041542B4350494E3F0D0A000036
:1064D00041540D0A00000000F8640008000000208C
:1064E0004C0000008C500008446500084C0000205F
:1064F0002C0500009C50000800400008000000002F
:10650000000000000000000000000000010000008A
:106510000000000000000000D0640008A064000833
:10652000C4640008B8640008886400080000000023
:106530000102030401020304060708090204060815
:046540000000000057
:04000005080041317D
:00000001FF
